:100000000C942B020C9453020C9453020C94530244
:100010000C9453020C9453020C9453020C9453020C
:100020000C9453020C9453020C9453020C945302FC
:100030000C9453020C9453020C9453020C945302EC
:100040000C94AD0D0C9453020C9453020C94530277
:100050000C9453020C9453020C9453020C945302CC
:100060000C9499190C9453023C68313E3230302084
:100070004F4B3C2F68313E007D007D007D2C002CD5
:10008000733A002C73733A002C6D6D3A002C68683B
:100090003A002C663A002C703A002C543A003A7B15
:1000A000743A007B00485454502F312E30203230A7
:1000B00030204F4B0D0A436F6E74656E742D54796A
:1000C00070653A20746578742F6A736F6E0D0A0D2F
:1000D0000A003C2F626F64793E3C2F686561643E84
:1000E0003C2F68746D6C3E003C68313E4C6F61641F
:1000F000696E672E2E2E3C2F68313E003C68746D71
:100100006C3E3C686561643E3C7363726970742048
:100110007372633D22687474703A2F2F616A61783C
:100120002E676F6F676C65617069732E636F6D2FDB
:10013000616A61782F6C6962732F6A717565727973
:100140002F312E382E312F6A71756572792E6D69B7
:100150006E2E6A73223E3C2F7363726970743E3C4C
:10016000736372697074207372633D222F2F616A0A
:1001700061782E676F6F676C65617069732E636F4E
:100180006D2F616A61782F6C6962732F6A71756572
:10019000727975692F312E382E32332F6A71756559
:1001A00072792D75692E6D696E2E6A73223E3C2F11
:1001B0007363726970743E3C2F686561643E3C6293
:1001C0006F64793E00485454502F312E3020323025
:1001D00030204F4B0D0A436F6E74656E742D547949
:1001E00070653A20746578742F68746D6C0D0A0D13
:1001F0000A0000000000240027002A000000000080
:10020000250028002B000000000023002600290004
:1002100004040404040404040202020202020303AC
:1002200003030303010204081020408001020408B4
:100230001020010204081020000000070002010045
:100240000003040600000000000000001F1C1F1E29
:100250001F1E1F1F1E1F1E1F005EBCE2613FDD83AD
:10026000C29C7E20A3FD1F419DC3217FFCA2401E96
:100270005F01E3BD3E6082DC237D9FC1421CFEA086
:10028000E1BF5D0380DE3C62BEE0025CDF81633D76
:100290007C22C09E1D43A1FF4618FAA427799BC566
:1002A00084DA3866E5BB5907DB856739BAE4065856
:1002B0001947A5FB7826C49A653BD987045AB8E646
:1002C000A7F91B45C6987A24F8A6441A99C7257B36
:1002D0003A6486D85B05E7B98CD2306EEDB3510F26
:1002E0004E10F2AC2F7193CD114FADF3702ECC9216
:1002F000D38D6F31B2EC0E50AFF1134DCE90722C06
:100300006D33D18F0C52B0EE326C8ED0530DEFB1F5
:10031000F0AE4C1291CF2D73CA947628ABF51749E5
:100320000856B4EA6937D58B5709EBB536688AD4D5
:1003300095CB2977F4AA4816E9B7550B88D6346AC5
:100340002B7597C94A14F6A8742AC896154BA9F7B5
:10035000B6E80A54D7896B3500407A10F35A00A0EA
:10036000724E18090010A5D4E80000E8764817007E
:1003700000E40B54020000CA9A3B000000E1F505BE
:10038000000080969800000040420F000000A08608
:1003900001000000102700000000E803000000003A
:1003A0006400000000000A000000000001000000DE
:1003B00000002C76D888DC674F0823DFC1DFAE59F8
:1003C000E1B1B796E5E3E453C63AE651997696E88B
:1003D000E6C28426EB898C9B62ED407C6FFCEFBC0F
:1003E0009C9F40F2BAA56FA5F490055A2AF75C933A
:1003F0006B6CF9676DC11BFCE0E40D47FEF520E670
:10040000B500D0ED902E0300943577050080841E52
:10041000080000204E0A000000C80C333333330FAD
:10042000986E12831141EF8D2114893BE65516CF4A
:10043000FEE6DB18D1844B381BF77C1D901DA4BB56
:10044000E424203284725E228100C9F124ECA1E50B
:100450003D278E0DC11811241FBECFEFD8E0DEBF9F
:10046000CDBF13E0A0E0B1E0E6E3F5E402C0059003
:100470000D92AE31B107D9F716E0AEE1B3E001C09D
:100480001D92AD3FB107E1F714E0C6E5D4E004C02A
:100490002297FE010E940520C235D107C9F70E94AC
:1004A0001E0F0C9499220C940000A0E0B0E0EBE544
:1004B000F2E00C94D01FFC01EA018081823008F444
:1004C00038C1DB019C91923008F430C1843059F47A
:1004D000943009F02EC1918111968C911197981743
:1004E00009F021C126C1943009F420C19230B1F441
:1004F000823009F01EC1CA01AF0128E0DA010D9077
:10050000AD01DC010D92CD012150C1F7DB01119647
:100510008C9111979181892389830AC1823009F4D2
:1005200005C1C280D380DB0112966D907C90139739
:1005300024813581468157811496ED90FD900D916F
:100540001C911797C601861997095C0197FF04C093
:10055000AA24BB24A81AB90AB0E2AB16B1040CF065
:1005600061C0181619066CF5370148010A2C04C041
:1005700096948794779467940A94D2F781E090E0F8
:10058000A0E0B0E00A2C04C0880F991FAA1FBB1F6F
:100590000A94D2F70197A109B1098E219F21A023C6
:1005A000B123EE24FF248701E3940097A105B10550
:1005B00019F4EE24FF248701E628F72808291929D1
:1005C0003CC00097D1F1CA0CDB1C39014A010A2C4E
:1005D00004C096948794779467940A94D2F781E044
:1005E00090E0A0E0B0E00A2C04C0880F991FAA1F79
:1005F000BB1F0A94D2F70197A109B1098223932363
:10060000A423B52321E030E040E050E00097A105AD
:10061000B10519F420E030E0A9012629372948293D
:1006200059290BC06C147D0424F4EE24FF248701A7
:1006300004C0630120E030E0A9018181FB019181C8
:10064000891709F445C0882349F0D801C701821BE6
:10065000930BA40BB50B9C01AD0104C02E193F09EF
:10066000400B510B57FD04C01982DB82CA820BC0BC
:1006700081E08983DB82CA8250954095309521952F
:100680003F4F4F4F5F4F2C833D834E835F830DC0A1
:10069000880F991FAA1FBB1F8C839D83AE83BF83C6
:1006A0008A819B8101979B838A838C819D81AE8106
:1006B000BF819C01AD0121503040404050402F3F50
:1006C000EFEF3E07EFEF4E07EFE35E0708F30BC0D7
:1006D0008983DB82CA822E0D3F1D401F511F2C8350
:1006E0003D834E835F8383E088832C813D814E81EF
:1006F0005F8157FF1DC0DA01C90181709070A07041
:10070000B0705695479537952795822B932BA42B40
:10071000B52B8C839D83AE83BF838A819B81019699
:100720009B838A8305C0E1E2F1E003C0FB0101C0C5
:10073000FE01CF01CDB7DEB7EEE00C94EC1FA0E2D6
:10074000B0E0E5EAF3E00C94D81F69837A838B83E9
:100750009C832D833E834F83588789E0E82EF12CBC
:10076000EC0EFD1ECE010196B7010E9405088E0118
:100770000F5E1F4FCE010596B8010E940508C70104
:10078000B801AE01475E5F4F0E9455020E943707D5
:10079000A096E6E00C94F41FA0E2B0E0E2EDF3E0F6
:1007A0000C94D81F69837A838B839C832D833E832B
:1007B0004F8358878E01075F1F4FCE010196B80106
:1007C0000E94050891E1E92EF12CEC0EFD1ECE01F0
:1007D0000596B7010E9405088A8991E089278A8BCE
:1007E000C801B701AE01475E5F4F0E9455020E94EB
:1007F0003707A096E6E00C94F41FA0E2B0E0E3E037
:10080000F4E00C94CC1F69837A838B839C832D83C3
:100810003E834F835887CE010196BE01675F7F4FAD
:100820000E940508CE010596BE016F5E7F4F0E94B3
:1008300005089985923078F089898230C0F094302B
:1008400019F4823041F4CBC0843019F4923079F439
:10085000C6C0923051F481E02A859A89291709F49B
:1008600080E08A87CE010996BCC0823051F481E0D5
:100870002A859A89291709F480E08A8BCE0141964E
:10088000B0C06D847E848F849888ED88FE880F893F
:10089000188DE0E2F0E080E090E0DC01AA24BB24C7
:1008A000650120E030E0A901B3016170707061154D
:1008B0007105D1F02E0D3F1D401F511F150126015E
:1008C000280E391E4A1E5B1E81E090E0A0E0B0E0D9
:1008D0002E153F054007510718F080E090E0DC013D
:1008E000820D931DA41DB51DAA0CBB1CCC1CDD1CC8
:1008F00017FF09C061E0262E312C412C512CA22873
:10090000B328C428D528319749F0EE0CFF1C001FEE
:10091000111F9694879477946794C6CF6B897C89CE
:10092000EB85FC856E0F7F1F6E5F7F4F7C8F6B8F1B
:1009300061E0EA857A89E71709F460E06A8F6B8DD8
:100940007C8D10C0FC01E170F070309729F0569555
:100950004795379527955068B695A79597958795AC
:100960006F5F7F4FB7FDEECF0CC0880F991FAA1F96
:10097000BB1F57FD8160220F331F441F551F61505D
:1009800070408030E0E09E07E0E0AE07E0E4BE07A4
:1009900060F36B8F7C8F6FE7E62EF12C012D112D0C
:1009A000E822F9220A231B2360E4E616F10401057C
:1009B000110561F487FD0AC0211531054105510576
:1009C00029F0805C9F4FAF4FBF4F80788D8F9E8FF7
:1009D000AF8FB8A383E0898FCE01499602C081E230
:1009E00091E00E943707A096E2E10C94E81FA8E18D
:1009F000B0E0EDEFF4E00C94D41F69837A838B832D
:100A00009C832D833E834F8358878E01075F1F4F42
:100A1000CE010196B8010E94050881E1E82EF12C73
:100A2000EC0EFD1ECE010596B7010E9405089985C2
:100A3000923008F483C08989823008F47BC02A850B
:100A40003A8923272A87943011F0923021F498179D
:100A500009F06CC071C0843039F41D861E861F8673
:100A6000188A1C861B866AC0823019F484E0898744
:100A700065C08B859C852B893C89821B930B9C8749
:100A80008B872D853E854F855889ED88FE880F8997
:100A9000188D2E153F054007510738F4220F331FDC
:100AA000441F551F01979C878B876FE170E0A12C35
:100AB000B12CC12CA0E4DA2E80E090E0DC012E15F0
:100AC0003F054007510740F08A299B29AC29BD29E1
:100AD0002E193F09400B510BD694C794B794A79495
:100AE000220F331F441F551F6150704041F76FE7BD
:100AF000E62EF12C012D112DE822F9220A231B23C9
:100B000060E4E616F1040105110561F487FD0AC0F1
:100B1000211531054105510529F0805C9F4FAF4FEC
:100B2000BF4F80788D879E87AF87B88B8E01075F18
:100B30001F4F04C0870102C001E211E0C8010E94FA
:100B400037076896EAE00C94F01FA8E1B0E0EBEA02
:100B5000F5E00C94D81F69837A838B839C832D8363
:100B60003E834F8358878E01075F1F4FCE0101964A
:100B7000B8010E94050881E1E82EF12CEC0EFD1E63
:100B8000CE010596B7010E9405088985823040F0A4
:100B90008989823028F0C801B7010E946E0801C01F
:100BA00081E06896E6E00C94F41FA8E1B0E0EBED7C
:100BB000F5E00C94D81F69837A838B839C832D8303
:100BC0003E834F8358878E01075F1F4FCE010196EA
:100BD000B8010E94050881E1E82EF12CEC0EFD1E03
:100BE000CE010596B7010E9405088985823040F044
:100BF0008989823028F0C801B7010E946E0801C0BF
:100C000081E06896E6E00C94F41FA8E0B0E0EBE029
:100C1000F6E00C94D81F7B018C0183E08983D80116
:100C2000C7018827B7FD83959927AA27BB27282FB7
:100C30008A83E114F1040105110519F482E0898326
:100C400037C08EE190E09C838B83222389F080E083
:100C5000E81680E0F80680E0080780E8180769F1E8
:100C600010950095F094E094E11CF11C011D111DFC
:100C7000ED82FE820F831887C801B7010E94DD064E
:100C80009C01215030401216130694F4022E04C029
:100C9000EE0CFF1C001F111F0A94D2F7ED82FE829A
:100CA0000F8318878EE190E0821B930B9C838B83CC
:100CB000CE0101960E94370704C060E070E080E03A
:100CC0009FEC2896E6E00C94F41FA8E0B0E0EBE679
:100CD000F6E00C94D61F7B018C011A826115710518
:100CE0008105910519F482E089835FC083E08983DF
:100CF0008EE1C82ED12CDC82CB82ED82FE820F8366
:100D00001887C801B7010E94DD06FC013197F7FF83
:100D10003AC0AA27BB27AE1BBF0B21E030E040E062
:100D200050E00A2E04C0220F331F441F551F0A949F
:100D3000D2F721503040404050402E213F214023E7
:100D4000512361E070E080E090E02115310541051C
:100D5000510519F460E070E0CB0104C016950795C9
:100D6000F794E794AA95D2F7E62AF72A082B192BCD
:100D7000ED82FE820F8318878EE190E08E1B9F0B21
:100D80009C838B8312C0309781F00E2E04C0EE0C32
:100D9000FF1C001F111F0A94D2F7ED82FE820F8301
:100DA0001887CE1ADF0ADC82CB82CE0101960E9420
:100DB00037072896E8E00C94F21FAF92BF92CF92CB
:100DC000DF92EF92FF920F931F937B018C0180E0E3
:100DD000E81680E0F80681E0080780E0180758F47C
:100DE000EFEFEE16F1040105110509F090F480E033
:100DF00090E0DC0117C0F0E0EF16F0E0FF06F0E055
:100E00000F07F1E01F0750F480E190E0A0E0B0E0B0
:100E100009C088E090E0A0E0B0E004C088E190E084
:100E2000A0E0B0E020E230E040E050E0281B390BC9
:100E30004A0B5B0B5701680104C0D694C794B79462
:100E4000A7948A95D2F7D601C501875D9E4FFC0114
:100E50008081281B310941095109C9011F910F9156
:100E6000FF90EF90DF90CF90BF90AF900895EF92FA
:100E7000FF920F931F93CF93DF93FC012481358161
:100E80004681578161818081823020F44061EFEF9B
:100E9000F0E0A3C0843009F49BC0823009F492C012
:100EA000211531054105510509F48FC00280F381F8
:100EB000E02D8FEFE238F8070CF05AC0C2E8DFEF00
:100EC000CE1BDF0BCA31D1056CF579018A010C2EDE
:100ED00004C016950795F794E7940A94D2F781E039
:100EE00090E0A0E0B0E00C2E04C0880F991FAA1F6C
:100EF000BB1F0A94D2F70197A109B109822393235A
:100F0000A423B52321E030E040E050E00097A105A4
:100F1000B10519F420E030E0A9012E293F29402B2A
:100F2000512B03C020E030E0A901DA01C9018F771D
:100F30009070A070B07080349105A105B10539F4AE
:100F400027FF09C0205C3F4F4F4F5F4F04C0215C1B
:100F50003F4F4F4F5F4FE1E0F0E0203080E0380737
:100F600080E0480780E4580728F5E0E0F0E022C080
:100F7000E038F1056CF5E158FF4FDA01C9018F77D0
:100F80009070A070B07080349105A105B10539F45E
:100F900027FF09C0205C3F4F4F4F5F4F04C0215CCB
:100FA0003F4F4F4F5F4F57FF05C0569547953795B9
:100FB0002795319687E056954795379527958A95D9
:100FC000D1F70BC0E0E0F0E005C0E0E0F0E005C0E4
:100FD000EFEFF0E020E030E0A9018E2F8795882721
:100FE0008795942F9F77679566276795E695E22EFC
:100FF000A92FA82BFE2FF62B622F732F8A2F9F2F3E
:10100000CDB7DEB7E6E00C94F41FDC01FB012C91B8
:1010100011963C91119712968C911297482F4F7709
:1010200050E0982F991F9927991F13966C91139749
:10103000862F880F892B90E0661F6627661F6183C5
:10104000009739F5211531054105510511F482E06C
:1010500029C082E89FEF9383828367E0220F331FCA
:10106000441F551F6A95D1F783E0808309C0220F82
:10107000331F441F551F828193810197938382837D
:10108000203080E0380780E0480780E4580778F394
:1010900020C08F3F910579F4211531054105510597
:1010A00019F484E08083089544FF03C081E08083C5
:1010B00010C010820EC08F5790409383828383E0CC
:1010C000808387E0220F331F441F551F8A95D1F775
:1010D000506424833583468357830895FC01DB01E4
:1010E0009081923008F449C08C91823008F445C058
:1010F000943051F461818430B1F511962C9111979F
:1011000030E0261B310941C0843021F0923041F497
:101110008230B1F111968C9111978823A1F12DC0E5
:101120006181823001F111968C9111976817D9F481
:101130002281338112968D919C9113978217930788
:1011400094F028173907BCF02481358146815781F6
:1011500014968D919D910D90BC91A02D82179307AF
:10116000A407B50718F4662341F00DC02817390706
:101170004A075B0728F4662331F021E030E005C020
:1011800020E030E002C02FEF3FEFC9010895209129
:101190000E0430910F04E9E3F2E060E041915191D7
:1011A0004217530718F46F5F6730C1F7409110047E
:1011B00090E02AE130E0829FF001839FF00D929F42
:1011C000F00D1124E353FD4F838590E0FC0123E0F3
:1011D000EE0FFF1F2A95E1F7E81BF90BE40FF11D55
:1011E000E957FD4FE081F0E093E0EE0FFF1F9A9585
:1011F000E1F7E60FF11DE95BFD4FE081F0E0EE0F56
:10120000FF1FEE0FFF1FE75DFD4F508141813281CF
:101210002381652F742F832F922F08952F923F9251
:101220004F925F926F927F928F929F92AF92BF92F6
:10123000CF92DF92EF92FF920F931F93DF93CF93A2
:1012400000D000D000D0CDB7DEB78BEF93E00E9486
:1012500007170E94341229833A834B835C836D8382
:101260007E83A7EEB3E0FE01319686E001900D92F9
:101270008150E1F79091EA038CE3989FC00111241B
:101280002091EB03820F911D90930F0480930E0425
:1012900087EE93E00E948311882311F0815001C0F2
:1012A00086E0809310041092110407ED12E0CC2424
:1012B000DD24EAE12E2E312CEE24E394C29CB00111
:1012C000C39C700DD29C700D112461537D4F8BEF28
:1012D00093E00E94C6174B015C0120E030E04EEF26
:1012E00052EC0E94A505882369F0F801848195815C
:1012F000A681B78180879187A287B38784829582F0
:10130000A682B782F801F280FF2DF635D1F18C2D3F
:101310000E94C708F8014480558066807780FF2DC1
:10132000FF3439F420E030E040E05FE30E949F03A7
:1013300006C020E030E040E05FE30E94CC03562F7F
:10134000472F382F292F71E0872E912CC301B2012E
:10135000DA01F9012B2F3A2F4F2F5E2F0E94D5056E
:1013600087FD02C0882499248114910409F465C082
:101370002F2D2F34D9F0263521F0223409F054C016
:101380003FC00E94F50DF8012485358546855785B7
:10139000621B730B840B950B613CF4ED7F07F1E04E
:1013A0008F07F0E09F0708F042C03EC00E94F50D95
:1013B000F8012485358546855785621B730B840BA0
:1013C000950B613CF7E27F07F9E08F07F0E09F079C
:1013D000A0F0F8016481758186819781208531852F
:1013E000428553850E94CC0320E030E040E05FE37B
:1013F0000E94D50587FD1EC022C0E09211041FC0C7
:101400000E94F50DF8012485358546855785621BB8
:10141000730B840B950B6138FEEE7F07F6E38F07A5
:10142000F0E09F0750F40BC066E5F62E08C05FE4BD
:10143000F52E05C042E4F42E02C033E4F32EF80189
:101440008281F81641F00E94F50DF80164877587D6
:1014500086879787F282F8018081FF2DF63529F083
:1014600061E0FF3419F060E001C061E00E94E60E27
:101470000894C11CD11C065E1F4F22E0C216D10485
:1014800009F01CCF81E0609111040E94E60E2696BF
:101490000FB6F894DEBF0FBECDBFCF91DF911F9185
:1014A0000F91FF90EF90DF90CF90BF90AF909F9003
:1014B0008F907F906F905F904F903F902F90089506
:1014C0000F931F93DF93CF9300D000D000D0CDB700
:1014D000DEB780E796E00E9489180E94901186EEA0
:1014E00093E00E949211882369F48E010F5F1F4FD1
:1014F000C80160E071E04CE051E00E941B11C8019E
:101500000E94BA1181E061E00E94C20E8BEF93E06D
:101510000E942B168BEF93E06FEC72E04CE00E9480
:10152000B2158091D70261E00E94C20E8BEF93E06A
:1015300069EE72E04CE00E94B2158091F10261E028
:101540000E94C20E8EE193E040EA5FE060E070E04E
:101550002EE039E00E94171026960FB6F894DEBFF1
:101560000FBECDBFCF91DF911F910F9108958EE1F6
:1015700093E00E948E0F08950F931F93CF93DF93F4
:10158000C2E1D4E001E013E0CE01B8010E943A0FBD
:10159000CE0162E00E943E0F6AE070E080E090E0E1
:1015A0000E94290ECE0164E140E858E00E94420FFB
:1015B00064EF71E080E090E00E94290ECE0164E1CA
:1015C00040E959E00E94420F64EF71E080E090E052
:1015D0000E94290ECE0164E140E858E00E94420FCB
:1015E00064EF71E080E090E00E94290ECE0164E19A
:1015F00040E959E00E94420F64EF71E080E090E022
:101600000E94290ECE0164E146E754E00E94420F99
:1016100064E670E080E090E00E94290ECE01B801FF
:1016200047E053E020E50E944C0F0E94600ADF91E2
:10163000CF911F910F910895DF93CF9300D0CDB735
:10164000DEB78091F9069091FA069E012F5F3F4F19
:10165000009719F42D5F364002C0281B390B3A83DE
:10166000298389819A810F900F90CF91DF910895FE
:10167000FC01A62FB72F80E00CC011969C919923F6
:1016800039F4319690819D3371F4A62FB72F81E004
:1016900031969081992351F0903241F0882341F4A2
:1016A0002C91921751F3A62FB72FF2CF8130A1F4CE
:1016B000A8E0B6E090E02191222349F0203239F0F1
:1016C000263229F0963119F02D939F5FF4CFE92F40
:1016D000F0E0E85FF94F1082089565E171E00E9443
:1016E000380B882331F08091080680538A3018F433
:1016F00008958FEF08958FEF0895BC0182E194E083
:1017000040E050E025EC31E00E942E0F08950F9349
:101710001F93CF93DF93EC010E947D0BAC0102E19C
:1017200014E0C801BE012CEF30E00E942E0FAC0186
:10173000C801BE0128EE30E00E942E0FAC01C801A6
:10174000BE0122ED30E00E942E0FDF91CF911F915C
:101750000F9108956F927F928F929F92AF92BF9256
:10176000CF92DF92EF92FF920F931F93DF93CF936D
:10177000CDB7DEB7A0970FB6F894DEBF0FBECDBFD2
:101780007C0182E194E0B70140E050E025EA30E0DE
:101790000E942E0FAC0182E194E0B70123EA30E011
:1017A0000E942E0F8C01F8ED8F2EF2E09F2EAA24BE
:1017B000BB246E010894C11CD11CC501B6014AE0CE
:1017C00050E00E94392082E194E0B701A80196011F
:1017D0000E94340FAC0182E194E0B7012EE930E0C1
:1017E0000E942E0F3C01F4016381748185819681F2
:1017F00045E022E086010E94092082E194E0B701E1
:10180000A30196010E94340FAC0182E194E0B7017C
:101810002AE930E00E942E0F3C018A2D0E94C70861
:1018200045E022E00E94092082E194E0B701A30193
:1018300096010E94340F8C01F401808190E0B60182
:101840004AE050E00E94392082E194E0B701A8010B
:1018500026E930E00E942E0FAC0182E194E0B7014E
:1018600096010E94340F8C010E941C0BB6014AE0C5
:1018700050E00E94392082E194E0B701A80122E9FA
:1018800030E00E942E0FAC0182E194E0B701960196
:101890000E94340F8C018091EA0390E0B6014AE087
:1018A00050E00E94392082E194E0B701A8012DE8C0
:1018B00030E00E942E0FAC0182E194E0B701960166
:1018C0000E94340F8C018091EB0390E0B6014AE056
:1018D00050E00E94392082E194E0B701A80128E895
:1018E00030E00E942E0FAC0182E194E0B701960136
:1018F0000E94340F8C018091EC0390E0B6014AE025
:1019000050E00E94392082E194E0B701A80123E869
:1019100030E00E942E0FAC0182E194E0B701960105
:101920000E94340FAC0182E194E0B7012FE730E070
:101930000E942E0FAC01F401818189831A8282E119
:1019400094E0B70196010E94340FAC01F1E0AF16AC
:10195000B10419F02CE730E002C02AE730E082E160
:1019600094E0B7010E942E0F8C010894A11CB11CB9
:101970008AE190E0880E991E92E0A916B10409F060
:101980001CCF82E194E0B701A80128E730E00E9473
:101990002E0FA0960FB6F894DEBF0FBECDBFCF912D
:1019A000DF911F910F91FF90EF90DF90CF90BF904C
:1019B000AF909F908F907F906F900895CF93DF931B
:1019C00082E194E064EF71E043E154E00E94470F4C
:1019D000EC01009709F49DC082E194E063E174E0BA
:1019E000AE010E94520F882339F082E194E063E156
:1019F00074E00E94570F8FC082E194E063E174E0CD
:101A0000AE010E945B0F882309F485C080912A04EF
:101A1000813069F480913504883009F07AC082E120
:101A200094E063E174E0AE010E94600F74C0863000
:101A300009F06FC080913704882309F06AC0809153
:101A40003804803509F065C08091420481FF07C0E9
:101A500082E194E063E174E00E94650F5CC084FF62
:101A600058C082E194E063E174E00E94690F82E172
:101A700094E00E946D0FEC01009759F480914204AC
:101A800080FF49C082E194E063E174E00E94700F3E
:101A900042C0BC016D5E7B4F89E191E044E050E0C3
:101AA0000E942B20009771F083E194E00E947D0B4F
:101AB000AC0182E194E063E174E028E630E00E944A
:101AC0002E0F19C0BE01695E7B4F8EE191E042E0AE
:101AD00050E00E942B20009729F483E194E00E94BB
:101AE000870B09C0CE01885E9B4F0E946D0B83E17E
:101AF00094E00E94AA0BEC0182E194E063E174E0BF
:101B00000E94700F82E194E063E174E0AE010E94F4
:101B1000740F0E94B70ADF91CF910895CF93DF939E
:101B20008EE193E00E94790F87EE93E040E050E071
:101B3000BA010E94BA10CDEED3E0CE0169E00E9456
:101B4000F0138BEF93E0BE010E94B11482E194E0A8
:101B50000E942D0FDF91CF9108951F920F920FB623
:101B60000F9211242F933F938F939F93AF93BF9323
:101B70008091230690912406A0912506B091260617
:101B8000309127060196A11DB11D232F2D5F2D3702
:101B900020F02D570196A11DB11D2093270680939B
:101BA000230690932406A0932506B09326068091E1
:101BB0001F0690912006A0912106B0912206019661
:101BC000A11DB11D80931F0690932006A0932106AE
:101BD000B0932206BF91AF919F918F913F912F912A
:101BE0000F900FBE0F901F9018958FB7F89420910B
:101BF00023063091240640912506509126068FBF7A
:101C0000B901CA0108959FB7F89420911F06309139
:101C10002006409121065091220686B5A89B06C059
:101C20008F3F21F02F5F3F4F4F4F5F4F9FBF542F8C
:101C3000432F322F2227280F311D411D511D82E0D5
:101C4000220F331F441F551F8A95D1F7B901CA01CE
:101C50000895EF92FF920F931F93CF93DF937B0131
:101C60008C010E94030EEB010FC00E94030E6C1B3F
:101C70007D0B83E0683E780738F00894E108F108AE
:101C800001091109C851DC4FE114F10401051105E6
:101C900061F7DF91CF911F910F91FF90EF90089521
:101CA000019739F0880F991F880F991F02970197A4
:101CB000F1F70895789484B5826084BD84B581601D
:101CC00084BD85B5826085BD85B5816085BDEEE644
:101CD000F0E0808181608083E1E8F0E01082808123
:101CE00082608083808181608083E0E8F0E0808191
:101CF00081608083E1EBF0E0808184608083E0EBB1
:101D0000F0E0808181608083EAE7F0E08081846098
:101D100080838081826080838081816080838081F4
:101D2000806880831092C1000895833071F0843000
:101D300028F48130A1F0823021F514C08630B1F052
:101D40008730D1F08430E9F404C0809180008F772F
:101D500003C0809180008F7D80938000089584B5BA
:101D60008F7702C084B58F7D84BD08958091B000C7
:101D70008F778093B00008958091B0008F7D80931D
:101D8000B000089590E0FC01EC5DFD4F2491FC0152
:101D9000E05FFD4FE491EE23C1F0F0E0EE0FFF1F96
:101DA000EE50FE4F85919491DC01662341F49FB77C
:101DB000F8948C91209582238C939FBF08959FB7B0
:101DC000F8948C91822B8C939FBF08950F931F934F
:101DD000DF93CF930F92CDB7DEB7282F30E0F90114
:101DE000E85CFD4F8491F901EC5DFD4F1491205F9B
:101DF0003D4FF90104910023D9F0882321F0698334
:101E00000E94950E6981E02FF0E0EE0FFF1FE45075
:101E1000FE4F85919491DC019FB7F894662321F4DD
:101E20008C911095812302C08C91812B8C939FBF44
:101E30000F90CF91DF911F910F910895CF93DF9372
:101E40000E945A0E0E94BC0AC0E0D0E00E94DE0C44
:101E50002097E1F30E940000F9CF0895CB01BA0169
:101E6000A9010E94171F0895CB01BA01A9010E9480
:101E7000271F0895CB010E94F11B0895862F0E9411
:101E8000EB1B0895862FBA010E94C61B0895CB0153
:101E9000BA010E94E61C0895CB01BA01422F0E94AC
:101EA000BC1D0895CB01BA010E94D31D0895CB013A
:101EB0000E94781E0895CB01BA010E94EE1D08957C
:101EC000CB01BA010E94A01E0895CB010E94BE1E44
:101ED0000895CB010E94F41E08950E94E31E089508
:101EE000CB010E94371F0895CB01BA010E94651FE4
:101EF00008950F931F93CF93DF938C01C0E0D0E040
:101F0000C8018C0F9D1F0E9420106496C83CD1050B
:101F1000B9F7DF91CF911F910F910895CF92DF9282
:101F2000EF92FF920F931F93CF93DF937C018C016D
:101F3000C0E0D0E084E1C82ED12CF80180819181ED
:101F4000009759F0CC9DC001CD9D900DDC9D900D6A
:101F500011248E0D9F1D0E94241021960C5E1F4F90
:101F6000CA30D10551F7DF91CF911F910F91FF90AA
:101F7000EF90DF90CF900895E82FF92F20E030E028
:101F800080819181009741F02F5F3F4F74962A30F6
:101F90003105B1F72FEF3FEFC90108956F927F929E
:101FA0008F929F92AF92BF92CF92DF92EF92FF9269
:101FB0000F931F93CF93DF936C014A015B013901AB
:101FC0000E94BC0F7C018FEFE8168FEFF806F9F046
:101FD00084E190E0E89EE001E99ED00DF89ED00DEE
:101FE0001124CC0DDD1D81E090E0998388838A82E5
:101FF0009B82AC82BD821F830E837D866C860E948D
:10200000F50D6E877F87888B998B1B8A1A8AC7018B
:10201000DF91CF911F910F91FF90EF90DF90CF90C4
:10202000BF90AF909F908F907F906F9008950F9387
:102030001F930FEF1FEF0E94CE0F1F910F91089576
:10204000FC01118210820895EF92FF920F931F936B
:10205000CF93DF93EC010E94F50D7B018C018A8107
:102060009B81AC81BD812E853F8548895989820F2E
:10207000931FA41FB51F8E159F05A007B10718F564
:10208000888199818130910521F08230910591F408
:1020900004C0EC85FD8509950DC061E070E08A857E
:1020A0009B85009711F060E070E07B876A878885E8
:1020B0000E94E60EEE86FF86088B198B8A899B8923
:1020C00001969B8B8A8B8E819F8197FD07C02A8901
:1020D0003B892817390714F019821882DF91CF91B4
:1020E0001F910F91FF90EF90089527E0803D920798
:1020F00010F0805D974050E020E030E008C0F9012A
:10210000E45BFD4FE4914E0F511D2F5F3F4F722F47
:102110007F5F7617A0F3633040F09C01237030702E
:102120002115310511F44F5F5F4F6DE671E0869F19
:102130009001879F300D969F300D11242150304023
:1021400003969695879596958795280F391F240FA6
:10215000351FC9010895FC01908190539A3008F011
:1021600090E021812053990F892F880F880F890FC4
:10217000820F0895EF92FF920F931F93CF93DF93F7
:10218000EC01CB01BA01605873448D469843ECE3EF
:10219000EE2EF12C012D112DA80197010E94AA1FEE
:1021A0006D83CA01B901A80197010E94AA1F6C831F
:1021B000CA01B90128E130E040E050E00E94AA1FC6
:1021C0006B83188243E95EEFE8818E2F90E0837085
:1021D0009070A1E0009709F0A0E08A2F90E0BC0188
:1021E00063597E4F2617370740F0BA01681B790BF9
:1021F000260F371FEF5FE883E7CF81E0898389816E
:10220000E82FF0E0E55BFD4FE491AA2319F082305E
:1022100009F4EF5FF0E02E173F0720F02E1B3F0B75
:102220008F5FECCF2F5F2A83DF91CF911F910F91AA
:10223000FF90EF900895EF92FF920F931F93CF932B
:10224000DF93EC018B017A01CB0109960E94AB1060
:102250008883F80180818A34A9F08B3438F484347F
:10226000B1F18634E1F08134A1F51BC08E3469F1FF
:102270008F3418F48D3469F51CC08F3421F1833507
:1022800041F51FC0F8018181813639F082818E3697
:1022900011F486E01DC087E01BC081E019C082E018
:1022A00017C0F8018281823711F484E011C088E000
:1022B0000FC0F8018281823711F483E009C085E004
:1022C00007C089E005C08AE003C08BE001C08CE054
:1022D0008983C80104960E94AB108A83C7010E94BB
:1022E000AB108B83C70103960E94AB108C83C70190
:1022F00006960E94AB108D83DF91CF911F910F91B5
:10230000FF90EF900895FC01808190E0618142810F
:102310000E947510069667E070E00E94961F08956F
:1023200081E0089580E796E068E670E00E94AE18CC
:1023300080E796E0609128060E94591880E796E0B1
:102340000E94B11880E796E068E670E041E050E056
:102350000E94A11880E796E00E940218282F30E022
:10236000220F232F221F330B81E02115310509F0A5
:1023700080E00895FF920F931F93CF93DF938C011A
:10238000C0E7D6E0CE0168E670E00E94AE18CE014C
:10239000609128060E945918F8012581AAE0FA2EBA
:1023A000822F6F2D0E948A1F682F660F680F660F9D
:1023B000620FCE010E945918F8012481822F6F2DDF
:1023C0000E948A1F682F660F680F660F620FCE018A
:1023D0000E945918F8012381822F6F2D0E948A1FB5
:1023E000682F660F680F660F620FCE010E945918A2
:1023F000CE0160E00E945918F8012281822F6F2DD2
:102400000E948A1F682F660F680F660F620FCE0149
:102410000E945918F8012181822F6F2D0E948A1F76
:10242000682F660F680F660F620FCE010E94591861
:10243000F8012081822F6F2D0E948A1F682F660F5E
:10244000680F660F620FCE010E945918CE0160918D
:1024500028060E945918CE010E94B118DF91CF9131
:102460001F910F91FF900895BF92CF92DF92EF924C
:10247000FF920F931F93DF93CF9300D000D000D033
:10248000CDB7DEB700E716E0C80168E670E00E944D
:10249000AE18C801609128060E945918C8010E9410
:1024A000B118C80168E670E047E050E00E94A1184A
:1024B000C8010E940218BFE7FB2EF822C8010E9443
:1024C0000218E82EC8010E940218D82EC8010E94E6
:1024D0000218C8010E940218C82EC8010E940218E2
:1024E000B82EC8010E940218282F22952F709AEF4B
:1024F000299F202D1124280F3B2D32953F70399FA5
:10250000302D11243B0D4C2D42954F70499F402D8D
:1025100011244C0D5D2D52955F70599F502D112443
:102520005D0D6E2D62956F70699F602D11246E0D8B
:102530007F2D72957F70799F702D11247F0D80E023
:1025400090E026960FB6F894DEBF0FBECDBFCF91B8
:10255000DF911F910F91FF90EF90DF90CF90BF9090
:102560000895FF920F931F93CF93DF93FC01108187
:10257000C181D281F8948981012F009580238983BC
:1025800078948DE7F82EFA9431F182E090E00E9481
:10259000500E88818123B9F3F8948A8180238A833D
:1025A0008981812B8983789484EF91E00E94500E79
:1025B000F89489818023898380E590E00E94500E01
:1025C0008881812311E009F010E0789484EA91E099
:1025D0000E94500E01C010E0812FDF91CF911F911A
:1025E0000F91FF9008951F93CF93DF93FC0110810B
:1025F000C181D281912F909560FF12C0F8948A8199
:1026000089238A838981812B89838AE090E00E94D3
:10261000500E8A81812B8A83789487E390E011C0E1
:10262000F8948A8189238A838981812B898381E433
:1026300090E00E94500E8A81812B8A83789485E0F5
:1026400090E00E94500EDF91CF911F9108950F935B
:102650001F93CF93DF93FC011081C181D281F89445
:102660008981812B89838A81012F009580238A8328
:1026700083E090E00E94500E8981802389838AE064
:1026800090E00E94500E0881789485E390E00E94CB
:10269000500E102381E009F480E0DF91CF911F916B
:1026A0000F910895CF92DF92EF92FF920F931F93B5
:1026B000DF93CF930F92CDB7DEB76C01F62E08E013
:1026C00010E0EE24E3948E2D8F2161E009F460E0A8
:1026D000C60149830E94F312EE0C0150104049815B
:1026E0000115110581F74423A9F4F894D601119638
:1026F000ED91FC91129781819C9190958923818322
:102700001196ED91FC91129782819C91909589236D
:10271000828378940F90CF91DF911F910F91FF905A
:10272000EF90DF90CF900895EF92FF920F931F9359
:10273000CF93DF938C01C8E0D0E0FF24EE24E39434
:10274000C8010E9427138111FE28EE0C2197C1F7C2
:102750008F2DDF91CF911F910F91FF90EF900895F2
:10276000CF92DF92EF92FF920F931F93DF93CF935D
:102770000F92CDB7DEB77C01062F65E540E0798387
:102780000E9452137981172FCC24DD24F801619126
:102790008F01C70140E00E9452130894C11CD11C54
:1027A000F8E0CF16D10491F70F90CF91DF911F91F0
:1027B0000F91FF90EF90DF90CF9008956CEC40E088
:1027C0000E9452130895FC01138615861486128602
:1027D000118610861782168215821482138208953C
:1027E0001F93CF93DF93EC01162F862F60E00E949A
:1027F000C20E612F70E0FB01EC5DFD4FE491E883B8
:10280000FB01E05FFD4FE491F0E0EE0FFF1FEA5F98
:10281000FD4F8591949189839A83CE010E94E313A1
:10282000DF91CF911F910895BF92CF92DF92EF92E7
:10283000FF920F931F93CF93DF93EC01162F072F77
:102840008D85882309F05DC0CE010E94B1128823D6
:1028500021F41B861D861C8665C0CE0160EF40E01A
:102860000E945213EE24E394DD24CC24FF24F3943D
:10287000CE010E942713B82ECE010E9427139B2D54
:10288000913019F48130B1F433C0B816D9F48B8586
:10289000F81638F4FE01ED0DF11D83818E2151F4FF
:1028A00002C0F81639F060E08F2D893008F044C07E
:1028B000FC8642C0FE01ED0DF11D83818E298383CC
:1028C00061E009C06B2DFE01ED0DF11D9E2D90956F
:1028D000838189238383CE010E94F312F394EE0C4B
:1028E00019F4D394EE24E3949D2D983008F4C0CFCE
:1028F0008F2D813430F0CB86CC2001F581E08D879F
:102900001DC01B861D861C8680E02396212F302F3C
:10291000F90120E030E0999191932F5F3F4F2830EB
:102920003105C9F7DF91CF911F910F91FF90EF9083
:10293000DF90CF90BF900895CF2CC5CF8B81882397
:1029400001F381E0E2CFDC0180E007C0ED91E827F0
:10295000F0E0E85AFD4F849161506623B9F708957D
:102960000895FC0180EB94E1928B818B76836583E3
:102970001482108289E0818381E0828383830895B9
:10298000CF93DF93EB01CB0167E00E94A31491E0AA
:102990002F81821390E0892FDF91CF910895EF92DC
:1029A000FF920F931F93CF93DF938C017B01EA017A
:1029B000FC01858196810E94B112F8018581968182
:1029C000B7010E94B013F801858196816EEB40E05B
:1029D0000E945213F801858196810E949413888386
:1029E000F801858196810E9494138983F80185817D
:1029F00096810E9494138A83F801858196810E94B2
:102A000094138B83F801858196810E9494138C83A3
:102A1000F801858196810E9494138D83F801858148
:102A200096810E9494138E83F801858196810E947D
:102A300094138F83F801858196810E94941388876F
:102A4000F801858196810E94B112DF91CF911F918B
:102A50000F91FF90EF900895CF93DF93EA010E94CA
:102A6000CF14CE0168E00E94A31491E02885821360
:102A700090E0892FDF91CF910895EF92FF920F930D
:102A80001F93CF93DF93EC017B018A018D819E819F
:102A90000E94B1128D819E81B7010E94B0138D8179
:102AA0009E816EE440E00E9452138D819E81F80168
:102AB000628140E00E9452138D819E81F801638102
:102AC00040E00E945213F7018081803139F08D81FE
:102AD0009E81F801648140E00E9452138D819E81A5
:102AE0000E94B1128D819E8168E448810E94521338
:102AF0008881882331F06AE070E080E090E00E94F5
:102B0000290E8D819E810E94B112DF91CF911F917C
:102B10000F91FF90EF9008950F931F93CF93DF9342
:102B2000EC018B018D819E810E94B1128D819E816D
:102B3000B8010E94B0138D819E8164EB40E00E9439
:102B400052138D819E810E942713082F8D819E81B3
:102B50000E94B11281E0011180E0DF91CF911F91BD
:102B60000F910895EF92FF920F931F93DF93CF93EE
:102B7000CDB7DEB72A970FB6F894DEBF0FBECDBF34
:102B80007C018B01242FAE014F5F5F4F2A870E948B
:102B90002C152A858823E1F0F80180818031D1F05D
:102BA0002A3051F02A3050F02B3021F02C3031F403
:102BB0008FE705C08FE503C08FE301C08FE18D83F0
:102BC000C701B801AE014F5F5F4F0E943D1502C0C3
:102BD00080E001C081E02A960FB6F894DEBF0FBEF8
:102BE000CDBFCF91DF911F910F91FF90EF9008958E
:102BF000DF93CF93CDB7DEB729970FB6F894DEBF3A
:102C00000FBECDBFFB0120812031B9F0AE014F5F77
:102C10005F4F0E942C15882391F08D818F3359F0DE
:102C2000803418F48F3159F408C08F3551F08F3744
:102C300031F48CE007C08AE005C089E003C080E081
:102C400001C08BE029960FB6F894DEBF0FBECDBF52
:102C5000CF91DF910895AF92BF92CF92DF92EF9222
:102C6000FF920F931F93DF93CF93CDB7DEB761979A
:102C70000FB6F894DEBF0FBECDBF8C01FC0185817D
:102C800096810E94E313F80114827E010894E11CEE
:102C9000F11C89E0C82ED12CCC0EDD1EBB24B394D0
:102CA0002BC0C801B7010E94C014882329F1F80184
:102CB0008081882341F4C801B7010E948C158823C4
:102CC00011F0F801B082C801B701A6010E94CF142B
:102CD000F801A180C801B7010E94F8158A1518F4FF
:102CE000F801818104C0C801B7010E94F815F801FC
:102CF000818384818F5F8483F80185819681B70108
:102D00000E941414882369F661960FB6F894DEBF0A
:102D10000FBECDBFCF91DF911F910F91FF90EF902C
:102D2000DF90CF90BF90AF900895DF93CF93CDB752
:102D3000DEB729970FB6F894DEBF0FBECDBFAE0148
:102D40004F5F5F4F0E94CF1481E09981992309F46E
:102D500080E029960FB6F894DEBF0FBECDBFCF91AD
:102D6000DF910895CF92DF92EF92FF920F931F931E
:102D7000CF93DF93EC016B0141155105F9F08B8185
:102D80008823E1F088818823C9F40E94F50D7B0136
:102D90008C01CE0160E070E00E949516882371F4EA
:102DA0000E94F50D6E197F09800B910B6E3E22E09B
:102DB000720720E0820720E0920758F3F601808135
:102DC000893039F08930A0F08A3041F08B3081F4BD
:102DD0000AC06EE570E080E090E00EC06CEB70E041
:102DE00080E090E009C067E771E080E090E004C017
:102DF0006EEE72E080E090E00E94290EDF91CF91AC
:102E00001F910F91FF90EF90DF90CF900895CF9397
:102E1000DF93EC018D819E810E94B1128D819E8194
:102E20000E94DE138D819E8164E448810E945213CA
:102E30008A81882341F0BE016F5F7F4FCE0140E061
:102E400050E00E94B216DF91CF9108958F929F9229
:102E5000AF92BF92CF92DF92EF92FF921F93CF93E8
:102E6000DF93FB01EA01998180E0688170E0682BC3
:102E7000792B8081823231F0883221F0803109F063
:102E800079C047C08C818F3329F1803420F48F3191
:102E900009F070C02EC08F3571F08F3709F06AC00D
:102EA000882777FD8095982F0E94050620E030E066
:102EB00040E85DE30CC075956795882777FD8095A0
:102EC000982F0E94050620E030E040E05EE30E947B
:102ED000FD0350C07595679575956795882777FDB3
:102EE0008095982F0E94050620E030E040E85EE3E0
:102EF000EECF23E0759567952A95E1F7882777FD52
:102F00008095982F0E94050620E030E040E05FE3C6
:102F1000DECF1F8175956795882777FD8095982F5F
:102F20000E94050620E030E040E85EE30E94CC030A
:102F30004B015C01612F70E08E81681B710988274D
:102F400077FD8095982F0E9405066B017C01612F0B
:102F500070E080E090E00E9465069B01AC01C70133
:102F6000B6010E94F7049B01AC01C501B4010E94A7
:102F70009F0300C0DF91CF911F91FF90EF90DF90F2
:102F8000CF90BF90AF909F908F900895CF92DF9297
:102F9000EF92FF920F931F93DF93CF93CDB7DEB7DE
:102FA00029970FB6F894DEBF0FBECDBF7C016B0131
:102FB0008E010F5F1F4FA8010E942C15882331F04E
:102FC000C701B601A8010E94261704C060E070E0A6
:102FD0008EEF92EC29960FB6F894DEBF0FBECDBFF0
:102FE000CF91DF911F910F91FF90EF90DF90CF90E5
:102FF000089520914B0630E080914A06281B310944
:10300000C901089580914A0690914B06891750F4A2
:10301000E82FF0E0E65DF94F208130E08F5F80938C
:103020004A0602C02FEF3FEFC9010895E0914A061A
:1030300080914B06E81730F4F0E0E65DF94F20810F
:1030400030E002C02FEF3FEFC90108950895CF92FD
:10305000DF92EF92FF920F931F93CF93DF936C0158
:10306000CB01EA0120916F062223B1F0E62EF92E62
:1030700000E010E00DC0D7016D917D01D601ED910A
:10308000FC910190F081E02DC60109950F5F1F4F63
:103090000C171D0780F303C0642F0E946719CE012F
:1030A000DF91CF911F910F91FF90EF90DF90CF9024
:1030B0000895DF93CF930F92CDB7DEB76983209148
:1030C0006F062223D1F020916E06203240F021E0DD
:1030D00030E0FC013383228320E030E015C0809192
:1030E0006D06E82FF0E0E35BF94F998190838F5FE5
:1030F00080936D0680936E0605C0CE01019661E057
:103100000E94671921E030E0C9010F90CF91DF9153
:10311000089510924A0610924B0610926D06109276
:103120006E060E94D8180895862F413208F040E2BA
:103130006AE276E00E94F11810924A0680934B06EC
:1031400008950E949418089581E080936F0660931B
:103150004C0610926D0610926E0608950E94A418F7
:10316000089580914C066DE476E040916E0621E072
:103170000E94271910926D0610926E0610926F062B
:103180000895109273061092720688EE93E0A0E004
:10319000B0E08093740690937506A0937606B09382
:1031A000770681E193E0909371068093700608950D
:1031B0001092A00682E161E00E94E60E83E161E0E8
:1031C0000E94E60EE9EBF0E080818E7F80838081B3
:1031D0008D7F808388E48093B80085E48093BC0071
:1031E0000895413288F59091A0069923E1F791E086
:1031F0009093A0069FEF90939F0610927D06942FC8
:10320000915090937E06880F816080937C0685EEB6
:103210008093BC008091A0068130E1F380917D060F
:10322000841710F440917D06EFE7F6E0262F372F44
:10323000D901242F30E02E0F3F1F02C081918D93C2
:10324000E217F307D9F701C040E0842F0895413217
:10325000B0F59091A0069923E1F792E09093A00633
:103260009FEF90939F0610927D0640937E06DB01B0
:10327000EFE7F6E050E04E0F5F1F02C09D91919383
:10328000E417F507D9F790E0880F991F80937C0623
:1032900085EE8093BC00222321F08091A00682302D
:1032A000E1F380919F068F3F61F080919F0680320D
:1032B00051F080919F06803341F483E0089581E0CE
:1032C000089580E0089582E0089584E008956132D1
:1032D000A0F42091A006243091F46093C506DC018F
:1032E000E8ECF6E070E06E0F7F1F02C08D918193D5
:1032F000E617F707D9F780E0089581E0089582E0A6
:103300000895882311F085EC01C085E88093BC0006
:10331000089585ED8093BC008091BC0084FDFCCFB6
:103320001092A006089585EC8093BC001092A00630
:1033300008951F920F920FB60F9211242F933F936F
:103340004F935F936F937F938F939F93AF93BF93AD
:10335000EF93FF938091B90090E0887F9070803662
:10336000910509F4C2C081369105E4F588329105D2
:1033700009F47EC089329105C4F48031910509F4C5
:1033800072C08131910544F4009709F413C188306B
:10339000910509F013C167C08831910509F468C02F
:1033A0008032910509F00AC178C08034910509F492
:1033B0008AC0813491054CF48033910509F46FC0C3
:1033C0008833910509F0FAC06EC08035910509F483
:1033D0006EC08835910509F47BC08834910509F0E9
:1033E000EDC0EAC08839910509F4DAC08939910540
:1033F000ECF48837910509F478C0893791054CF4CD
:103400008836910509F471C08037910509F0D6C05E
:103410006CC08838910509F4C3C08039910509F45E
:103420006AC08038910509F0C9C065C0803B91052C
:1034300009F48EC0813B91054CF4803A910509F462
:103440006CC0883A910509F0B9C082C0803C9105F2
:1034500009F4AAC0883C910509F4A6C0883B9105EF
:1034600009F0ACC08AC080917C068093BB0013C079
:1034700090917D0680917E06981708F09DC08091FE
:103480007D06E82FF0E0E158F94F90819093BB0062
:103490008F5F80937D0681E084C080E201C080E37D
:1034A00080939F0689C088E380939F064EC08091D9
:1034B0007D069091BB00E82FF0E0E158F94F908332
:1034C0008F5F80937D0690917D0680917E0665C01A
:1034D00080917D069091BB00E82FF0E0E158F94F14
:1034E00090838F5F80937D0667C083E08093A00602
:1034F0001092A106D0CF8091A106803208F050C072
:103500008091A1069091BB00E82FF0E0EE55F94FB5
:1035100090838F5F8093A106BECF8091A1068032F9
:1035200030F4E091A106F0E0EE55F94F10820E94D0
:1035300089196091A106E091C206F091C30682EA62
:1035400096E070E009951092A1060E94931936C08A
:1035500084E08093A0061092C4061092C506E09104
:10356000C606F091C70609958091C506882329F4FF
:1035700081E08093C5061092C8068091C406E82FAA
:10358000F0E0E853F94F90819093BB008F5F8093F8
:10359000C4069091C4068091C506981708F47BCFA5
:1035A00080E00E9481190AC081E00E948119109276
:1035B000A00604C010929F060E948919FF91EF9106
:1035C000BF91AF919F918F917F916F915F914F913B
:1035D0003F912F910F900FBE0F901F9018950F9352
:1035E0001F93082F162F8AE060E00E94E60E812FBD
:1035F0008F71802B8EBD0DB407FEFDCF1EBC0DB4A8
:1036000007FEFDCF17FF04C01EBC0DB407FEFDCFA3
:103610008AE061E00E94E60E8EB51F910F91089539
:103620000F931F93DF93CF930F92CDB7DEB7182F71
:10363000062F8AE060E049830E94E60E0F71012B9D
:103640000EBD49810DB407FEFDCF4EBD0DB407FE82
:10365000FDCF8AE061E00E94E60E0F90CF91DF91EE
:103660001F910F9108950F931F93CF93DF93EC0158
:103670008B018AE060E00E94E60E8AE38EBD0DB405
:1036800007FEFDCFF801CE0107C001971EBC0DB4A7
:1036900007FEFDCF2EB521930097B9F7C00FD11FBC
:1036A00018828AE061E00E94E60EDF91CF911F91BF
:1036B0000F9108950F931F93CF93DF93EC018B012C
:1036C0008AE060E00E94E60E8AE78EBD0DB407FE38
:1036D000FDCF08C02197F80181918F018EBD0DB4F7
:1036E00007FEFDCF2097B1F78AE061E00E94E60E69
:1036F000DF91CF911F910F9108951F93CF93DF9387
:10370000182FC82FD0E0C076D0702091EA0630E0A4
:10371000C217D30791F080EA6FE143E00E94101BCB
:10372000AE0185E0559547958A95E1F780E86FE110
:103730000E94101B10761093EA06DF91CF911F9123
:103740000895DF93CF930F92CDB7DEB7682F6983CB
:103750000E947D1B80E069810E94EF1A0F90CF913B
:10376000DF9108951F93DF93CF930F92CDB7DEB70C
:10377000182F69830E947D1B80E4612F49810E947C
:10378000101B0F90CF91DF911F9108951F93DF932E
:10379000CF930F92CDB7DEB7982F162F84ED692FF8
:1037A00079830E94B21B86ED612F0E94B21B87EDC8
:1037B0007981672F0E94B21B04C08FE090E00E94C5
:1037C000500E8AEE0E94A11B80FDF7CF0F90CF9183
:1037D000DF911F910895682F677085E70E94B21BE3
:1037E0000895CF93DF93EC018AE061E00E94C20E5E
:1037F0008AE061E00E94E60E8BE061E00E94C20E6A
:103800008DE061E00E94C20E8CE060E00E94C20E7A
:103810008BE060E00E94E60E8DE060E00E94E60E24
:1038200080E58CBD8DB581608DBD8FEF60E04FEF81
:103830000E94101B62E370E080E090E00E94290E7D
:103840001092E9061092E80688E060E00E94B21B40
:1038500089E060E00E94B21B8CE060E00E94B21B35
:103860008DE060E00E94B21B8AE06EEF0E94B21B06
:103870008BE069E10E94B21B84E06FEF0E94B21BF3
:1038800085E069E10E94B21B86E06FEF0E94B21BE7
:1038900087E06FE10E94B21B88E360EB0E94B21BDD
:1038A00088E26FE30E94B21B89E260E30E94B21BD0
:1038B00080E369EF0E94B21B81E367EF0E94B21BB5
:1038C00080EC6DE00E94B21B81EC60E00E94B21BB4
:1038D00080E862EC42E30E94101B86EC62E10E94E9
:1038E000B21B87EC6CE00E94B21B84EC62E10E9488
:1038F000B21B8AEC6CED0E94B21B8BEC65E00E945F
:10390000B21B84EE68810E94B21B85EE69810E9421
:10391000B21B82EE6A810E94B21B83EE6B810E9411
:10392000B21B80EE6C810E94B21B81EE6D810E9401
:10393000B21B80E160E071E00E94C61B8FE10E9433
:103940007D1B80E86BE140EC0E94101B80E86FE17A
:1039500044E00E94101BDF91CF9108950F931F93B5
:10396000CF93DF93EC018B0182E06FEF0E94B21BDB
:1039700083E069E10E94B21BCE018150682F86E08E
:103980000E94B21B9E012150364E87E0632F0E9499
:10399000B21B8AE760E040E00E94101BCE01B80134
:1039A0000E945A1B80E86FE148E00E94101B8CE1E6
:1039B0000E94A11B81FF05C080EA6FE148E00E94E0
:1039C000101BDF91CF911F910F910895AF92BF927D
:1039D000CF92DF92EF92FF920F931F93CF93DF93DB
:1039E0008C016B0189E30E94A11B882309F45EC04E
:1039F00080E06091E8060E94B21B6091E90681E0D8
:103A00000E94B21B8AE360E00E94EF1AC82FD0E048
:103A1000D093E906C093E8068AE360E00E94EF1ABB
:103A2000382F20E0C22BD32BD093E906C093E806B1
:103A30008AE360E00E94EF1AA82E8AE360E00E9409
:103A4000EF1AB82E8AE360E00E94EF1AE82EFF24F6
:103A50008AE360E00E94EF1A382F20E0E22AF32A7E
:103A6000E7FE12C0CA2DD0E03B2D20E0C22BD32BA5
:103A70000150104024970C171D0708F4E801CE01EF
:103A8000B6010E94331B02C0C0E0D0E08CE0609120
:103A9000E8060E94B21B6091E9068DE00E94B21B0D
:103AA00080E86EE140E40E94101B02C0C0E0D0E05C
:103AB000CE01DF91CF911F910F91FF90EF90DF909A
:103AC000CF90BF90AF900895EF92FF920F931F9306
:103AD000CF93DF938C01413041F4CB010897A0E0F4
:103AE000B0E04196A11DB11D0DC0423041F4CB01A3
:103AF0000897A0E0B0E00696A11DB11D03C080E0CC
:103B000090E0DC01EB01F8010EC0F080EE24218191
:103B100030E02E293F2940E050E0820F931FA41F80
:103B2000B51F32962297C230D10578F7FB01EE7FA0
:103B3000E00FF11F60FF0DC0308120E0442737FD0A
:103B40004095542F02C0A070B070820F931FA41F25
:103B5000B51F9D0144275527211531054105510504
:103B600091F79C0120953095C901DF91CF911F916C
:103B70000F91FF90EF90089540930C03262F372F5D
:103B8000D901EBEEF6E02D91219326E0EF3EF2070E
:103B9000D1F7DC01EFEEF6E08D91819386E0E53F11
:103BA000F807D1F70895FC016932710598F0848512
:103BB000883081F48585863069F4B696ABEEB6E040
:103BC00091918D91981741F486E0AF3EB807C1F707
:103BD00081E0089580E0089580E00895FC016A3254
:103BE0007105B0F08485883099F48585882381F447
:103BF0008685853469F47E96ABEEB6E091918D9121
:103C0000981741F486E0AF3EB807C1F781E0089508
:103C100080E0089580E00895E82FF92FAFEEB6E038
:103C2000868181938D91858386E0A53FB807C1F792
:103C30000895CF93DF93EC01188E198E80E48C8B5E
:103C40001D8A8E8BCE010E9664E170E040E00E94EA
:103C5000641D988F898FDF91CF910895ABEEB6E008
:103C6000FC017A96208124832D91219326E0AF3E9A
:103C7000B207C1F70E94191E0895FC0182A184A316
:103C800012A283A185A380910C0383A3DF019A96DE
:103C900084E09E91690F711D14969C91149714965F
:103CA0006C931497222311F09C9301C01C928150B5
:103CB00019F0672F7727EDCF222349F416A217A218
:103CC00080910B0380A711A68E5F80930B0312AA2D
:103CD00013AA442351F082E086AB84E087AB85E0F1
:103CE00080AF80E881AF80E601C080E586A70895B7
:103CF000CF93DF93EC010E940C1E1C8A82E08D8B17
:103D0000AFEEB6E0FE017696808182878D91819339
:103D100086E0A53FB807C1F7ABEEB6E0FE017C96A2
:103D2000808182878D91819386E0AF3EB807C1F78D
:103D30008AE290E0BE010E94AE1CDF91CF9108950F
:103D40000F931F93CF93DF93EC018B010E940C1E06
:103D5000CE010E942E1E1AA28CA1883F18F08DA1C0
:103D60008F5F8DA38CA1885F8CA3C801BE010E94C8
:103D7000AE1CDF91CF911F910F910895CF93DF93E8
:103D8000EC010E940C1E188A8CE2898BCE010E94E5
:103D90002E1E82E18FA7CE0161E070E041E020E0BD
:103DA0000E943D1ECE014A9660E270E042E00E9411
:103DB000641D9AAB8BAB8AE390E0BE010E94AE1CFF
:103DC000DF91CF9108958091F5069091F6060097C6
:103DD00039F02091F7063091F8062E5D3F4F02C072
:103DE00020E030E0C9010895FC01218930E090898C
:103DF00080E0282B392B2451304086A582958F7086
:103E000090E0880F991F880F991F9093F806809370
:103E1000F706281B390B3093F6062093F506121689
:103E2000130624F01092F6061092F5060895DB01B1
:103E3000D696A80FB91F03C0ED936F5F7F4FFA01AD
:103E40004F5F5F4FE491EE23B9F7CB010895242F24
:103E5000352FD901FB01F696E80FF91F03C08193B6
:103E60006F5F7F4F8D918823D1F7CB010895CF935A
:103E7000DF93EC010E940C1E80E18FA76091F50694
:103E80007091F6066115710521F4CE0161E070E0D4
:103E900001C0CE0140E021E00E943D1E188A88E268
:103EA000898BCE010E942E1ECE014A966CE170E0F5
:103EB00042E00E94641D9AAB8BAB86E390E0BE01AA
:103EC0000E94AE1CDF91CF9108950F931F93CF9363
:103ED000DF93EC018B0189E18FA7CB018896988B4A
:103EE000898BCE010E94191E1AAA1BAAB801645E12
:103EF0007F4FCE014A9642E00E94641D9AAB8BAB85
:103F0000C801C696BE010E94AE1CDF91CF911F91E1
:103F10000F910895991B79E004C0991F961708F036
:103F2000961B881F7A95C9F780950895AA1BBB1B1D
:103F300051E107C0AA1FBB1FA617B70710F0A61BA9
:103F4000B70B881F991F5A95A9F780959095BC01CA
:103F5000CD010895A1E21A2EAA1BBB1BFD010DC0C5
:103F6000AA1FBB1FEE1FFF1FA217B307E407F50729
:103F700020F0A21BB30BE40BF50B661F771F881F05
:103F8000991F1A9469F760957095809590959B019B
:103F9000AC01BD01CF0108952F923F924F925F92E5
:103FA0006F927F928F929F92AF92BF92CF92DF9249
:103FB000EF92FF920F931F93CF93DF93CDB7DEB7AE
:103FC000CA1BDB0B0FB6F894DEBF0FBECDBF099442
:103FD0002A88398848885F846E847D848C849B8499
:103FE000AA84B984C884DF80EE80FD800C811B81A7
:103FF000AA81B981CE0FD11D0FB6F894DEBF0FBED6
:10400000CDBFED010895EE0FFF1F0590F491E02D57
:104010000994EF92FF920F931F93322FF02E47FFD8
:1040200002C0A4E101C0A4E0E42FFF27E7FDF09562
:10403000F7FF03C0F095E195FF4F4F2D512F2E2F25
:10404000032FEA2E0E945A208F2D912F1F910F913E
:10405000FF90EF900895FB01DC014150504030F09B
:104060008D910190801919F40020B9F7881B990BE4
:104070000895FB019F01E8944230C4F04532B4F446
:104080004A3029F497FB1EF4909581959F4F642F39
:1040900077270E94961F805D8A330CF0895D81939B
:1040A000CB010097A1F716F45DE251931082C9018C
:1040B0000C948922A9E0B0E0E0E6F0E20C94D41F71
:1040C0006A01F22E102F0C3318F4B02EB39402C0F4
:1040D000ECE3BE2EAE014F5F5F4F27E00B2D0E9439
:1040E000B121298130E0A90149705070413051055A
:1040F00031F0E1FC06C0E0FE06C0E0E205C0EDE202
:1041000003C0EBE201C0E0E023FF37C0EE2311F073
:1041100084E001C083E08F1518F4F81A8F2D01C0D8
:1041200080E0E4FC0BC0982FD60120E202C02D9362
:1041300091509923E1F7C80ED11C80E0EE2319F0CD
:10414000D601ED936D01F6013196E2FE05C09EE4C5
:10415000D6019C9321E404C09EE6D6019C9321E6FF
:1041600011962C9391833296982FDF0120E202C0A2
:104170002D9391509923E1F73DC022FF41C0EE23DA
:1041800011F084E001C083E08F1518F4F81A8F2D28
:1041900001C080E0E4FC0BC0982FD60120E202C0F1
:1041A0002D9391509923E1F7C80ED11C80E0EE23A6
:1041B00019F0D601ED936D01F6013196E2FE09C0CA
:1041C00099E4D6019C939EE411969C93119796E4F2
:1041D00007C099E6D6019C939EE611969C9396E6BD
:1041E00091833296982FDF0120E202C02D939150E7
:1041F0009923E1F7E80FF11D10822EEF3FEFACC0DD
:1042000041E050E0EE2311F440E050E018161906AA
:1042100024F4BC016F5F7F4F02C061E070E0640F67
:10422000751F112329F0412F50E04F5F5F4F02C0EF
:1042300040E050E0460F571F6F2D70E046175707BC
:104240001CF40F2D041B01C000E0FF24A7014071E6
:104250005070E4FC0DC0E3FC0BC0602FD60170E28F
:1042600002C07D9361506623E1F7C00ED11C00E0CF
:10427000EE2319F0D601ED936D014115510559F466
:10428000402FF60150E302C0519341504423E1F71F
:10429000C00ED11C00E0B80EFA80A9014071507028
:1042A00024FF04C0BF2DB13309F4BA941B142CF4BD
:1042B000AB2DA93018F0A8E001C0A1E09C0197FF48
:1042C00002C020E030E0BC016F5F7F4F621B730BC8
:1042D000FE013196E60FF71F6EE2E62EBC016A1B67
:1042E0007109A12FB0E0AA24BB24AA1ABB0A1FEFB0
:1042F0002F3F310719F4D601ED926D018217930714
:104300002CF06217730714F4108101C010E32150E0
:10431000304031962A153B0524F0D6011D936D01DE
:10432000E6CF2817390749F4BF2DB63328F4B53343
:1043300021F44115510509F411E3F6011193802F81
:10434000DF0190E202C09D9381508823E1F7E00FE6
:10435000F11D108220E030E0C9012996EAE00C94BA
:10436000F01F283008F027E03327DA01990F311DBC
:1043700087FD916000966105710539F432602E5F0A
:104380003D9330E32A95E1F708959F3F30F0803860
:104390007105610509F03C5F3C5F3D93913008F089
:1043A0008068911DDF93CF931F930F93FF92EF923D
:1043B000192F987F9695E92F96959695E90FFF27E7
:1043C000EE54FC4F99273327EE24FF24A701E70181
:1043D00005900894079428F4360FE71EF81E491F2D
:1043E000511D660F771F881F991F0694A1F705902E
:1043F000079428F4E70EF81E491F561FC11D770FBA
:10440000881F991F661F0694A1F70590079428F44A
:10441000F80E491F561FC71FD11D880F991F661F11
:10442000771F0694A1F70590079420F4490F561FB3
:10443000C71FD81F990F661F771F881F0694A9F7FB
:1044400084911095177041F0D695C795579547956B
:10445000F794E7941A95C1F7E8E5F3E068941590AE
:10446000159135916591959105907FE27395E118CD
:10447000F10A430B560BC90BD009C0F7E10CF11E32
:10448000431F561FC91FD01D7EF4703311F48A9547
:10449000E6CFE894015030F0080F0AF40027021725
:1044A00008F4202F2395022F7A3328F079E37D93A7
:1044B0002A95E9F710C07D932A9589F60694979579
:1044C0006795379517951794E118F10A430B560B2A
:1044D000C90BD00998F023957E9173957A3308F033
:1044E00070E37C932013B8F77E9170617D9330F078
:1044F000839571E37D9370E32A95E1F71124EF90A2
:10450000FF900F911F91CF91DF91992787FD909593
:104510000895DC01FC01672F71917723E1F7329751
:1045200004C07C916D9370836291AE17BF07C8F38E
:064530000895F894FFCF8E
:1045360053657020313020323031320031363A3214
:10454600343A343200636D640047455420002F200E
:104556000000000000000000000001020203030347
:1045660003040404040404040405050505050505FF
:1045760005050505050505050506060606060606DE
:1045860006060606060606060606060606060606C5
:1045960006060606060606060607070707070707AE
:1045A6000707070707070707070707070707070795
:1045B6000707070707070707070707070707070785
:1045C6000707070707070707070707070707070775
:1045D600070707070707070707080808080808085E
:1045E6000808080808080808080808080808080845
:1045F6000808080808080808080808080808080835
:104606000808080808080808080808080808080824
:104616000808080808080808080808080808080814
:104626000808080808080808080808080808080804
:1046360008080808080808080808080808080808F4
:1046460008080808080808080808080808080808E4
:104656000808080808080808080000A040000070BC
:1046660041000090410000E0418601E001D0020CCB
:1046760003C003B00428050000000000000000018C
:10468600010101010101010202020202020202030A
:1046960003030303030303010301010103020101F1
:1046A60003010301030201010301030303020101E4
:1046B60003030303030201000000000000000101E0
:1046C60001010101010202020202020203030303C5
:1046D6000303030404040404070704040404040491
:1046E600070505050505070705050505050507066B
:1046F600060606060707060606060606070100283A
:10470600AD4CC403000013020300000000000000CB
:10471600000000000000000200286C41C4030000F5
:104726005703080000000000000000000000000021
:1047360000545558100024C0A8637B0A500000009E
:0E4746000059182718F917021816182618001F
:00000001FF
